{
  "contractName": "Pausable",
  "abi": [
    {
      "inputs": [
        {
          "internalType": "string",
          "name": "name_",
          "type": "string"
        },
        {
          "internalType": "string",
          "name": "symbol_",
          "type": "string"
        },
        {
          "internalType": "uint256",
          "name": "totalSupply_",
          "type": "uint256"
        },
        {
          "internalType": "uint8",
          "name": "decimals_",
          "type": "uint8"
        }
      ],
      "stateMutability": "nonpayable",
      "type": "constructor"
    },
    {
      "anonymous": false,
      "inputs": [
        {
          "indexed": true,
          "internalType": "address",
          "name": "owner",
          "type": "address"
        },
        {
          "indexed": true,
          "internalType": "address",
          "name": "spender",
          "type": "address"
        },
        {
          "indexed": false,
          "internalType": "uint256",
          "name": "value",
          "type": "uint256"
        }
      ],
      "name": "Approval",
      "type": "event"
    },
    {
      "anonymous": false,
      "inputs": [
        {
          "indexed": true,
          "internalType": "address",
          "name": "previousOwner",
          "type": "address"
        },
        {
          "indexed": true,
          "internalType": "address",
          "name": "newOwner",
          "type": "address"
        }
      ],
      "name": "OwnershipTransferred",
      "type": "event"
    },
    {
      "anonymous": false,
      "inputs": [
        {
          "indexed": false,
          "internalType": "address",
          "name": "account",
          "type": "address"
        }
      ],
      "name": "Paused",
      "type": "event"
    },
    {
      "anonymous": false,
      "inputs": [
        {
          "indexed": true,
          "internalType": "address",
          "name": "from",
          "type": "address"
        },
        {
          "indexed": true,
          "internalType": "address",
          "name": "to",
          "type": "address"
        },
        {
          "indexed": false,
          "internalType": "uint256",
          "name": "value",
          "type": "uint256"
        }
      ],
      "name": "Transfer",
      "type": "event"
    },
    {
      "anonymous": false,
      "inputs": [
        {
          "indexed": false,
          "internalType": "address",
          "name": "account",
          "type": "address"
        }
      ],
      "name": "Unpaused",
      "type": "event"
    },
    {
      "inputs": [
        {
          "internalType": "address",
          "name": "owner",
          "type": "address"
        },
        {
          "internalType": "address",
          "name": "spender",
          "type": "address"
        }
      ],
      "name": "allowance",
      "outputs": [
        {
          "internalType": "uint256",
          "name": "",
          "type": "uint256"
        }
      ],
      "stateMutability": "view",
      "type": "function"
    },
    {
      "inputs": [
        {
          "internalType": "address",
          "name": "spender",
          "type": "address"
        },
        {
          "internalType": "uint256",
          "name": "amount",
          "type": "uint256"
        }
      ],
      "name": "approve",
      "outputs": [
        {
          "internalType": "bool",
          "name": "",
          "type": "bool"
        }
      ],
      "stateMutability": "nonpayable",
      "type": "function"
    },
    {
      "inputs": [
        {
          "internalType": "address",
          "name": "account",
          "type": "address"
        }
      ],
      "name": "balanceOf",
      "outputs": [
        {
          "internalType": "uint256",
          "name": "",
          "type": "uint256"
        }
      ],
      "stateMutability": "view",
      "type": "function"
    },
    {
      "inputs": [],
      "name": "decimals",
      "outputs": [
        {
          "internalType": "uint8",
          "name": "",
          "type": "uint8"
        }
      ],
      "stateMutability": "view",
      "type": "function"
    },
    {
      "inputs": [],
      "name": "name",
      "outputs": [
        {
          "internalType": "string",
          "name": "",
          "type": "string"
        }
      ],
      "stateMutability": "view",
      "type": "function"
    },
    {
      "inputs": [],
      "name": "owner",
      "outputs": [
        {
          "internalType": "address",
          "name": "",
          "type": "address"
        }
      ],
      "stateMutability": "view",
      "type": "function"
    },
    {
      "inputs": [],
      "name": "renounceOwnership",
      "outputs": [],
      "stateMutability": "nonpayable",
      "type": "function"
    },
    {
      "inputs": [],
      "name": "symbol",
      "outputs": [
        {
          "internalType": "string",
          "name": "",
          "type": "string"
        }
      ],
      "stateMutability": "view",
      "type": "function"
    },
    {
      "inputs": [],
      "name": "totalSupply",
      "outputs": [
        {
          "internalType": "uint256",
          "name": "",
          "type": "uint256"
        }
      ],
      "stateMutability": "view",
      "type": "function"
    },
    {
      "inputs": [
        {
          "internalType": "address",
          "name": "to",
          "type": "address"
        },
        {
          "internalType": "uint256",
          "name": "amount",
          "type": "uint256"
        }
      ],
      "name": "transfer",
      "outputs": [
        {
          "internalType": "bool",
          "name": "",
          "type": "bool"
        }
      ],
      "stateMutability": "nonpayable",
      "type": "function"
    },
    {
      "inputs": [
        {
          "internalType": "address",
          "name": "from",
          "type": "address"
        },
        {
          "internalType": "address",
          "name": "to",
          "type": "address"
        },
        {
          "internalType": "uint256",
          "name": "amount",
          "type": "uint256"
        }
      ],
      "name": "transferFrom",
      "outputs": [
        {
          "internalType": "bool",
          "name": "",
          "type": "bool"
        }
      ],
      "stateMutability": "nonpayable",
      "type": "function"
    },
    {
      "inputs": [
        {
          "internalType": "address",
          "name": "newOwner",
          "type": "address"
        }
      ],
      "name": "transferOwnership",
      "outputs": [],
      "stateMutability": "nonpayable",
      "type": "function"
    },
    {
      "inputs": [],
      "name": "paused",
      "outputs": [
        {
          "internalType": "bool",
          "name": "",
          "type": "bool"
        }
      ],
      "stateMutability": "view",
      "type": "function"
    }
  ],
  "bytecode": "0x60806040523480156200001157600080fd5b5060405162001b1138038062001b118339818101604052810190620000379190620004df565b604051806020016040528060008152506040518060200160405280600081525060008083600290805190602001906200007292919062000219565b5082600390805190602001906200008b92919062000219565b508160058190555080600460006101000a81548160ff021916908360ff16021790555050505050620000d2620000c66200014b60201b60201c565b6200015360201b60201c565b8360079080519060200190620000ea92919062000219565b5082600890805190602001906200010392919062000219565b5081600a819055506000600b60006101000a81548160ff02191690831515021790555080600960006101000a81548160ff021916908360ff16021790555050505050620005f4565b600033905090565b6000600660009054906101000a900473ffffffffffffffffffffffffffffffffffffffff16905081600660006101000a81548173ffffffffffffffffffffffffffffffffffffffff021916908373ffffffffffffffffffffffffffffffffffffffff1602179055508173ffffffffffffffffffffffffffffffffffffffff168173ffffffffffffffffffffffffffffffffffffffff167f8be0079c531659141344cd1fd0a4f28419497f9722a3daafe3b4186f6b6457e060405160405180910390a35050565b8280546200022790620005be565b90600052602060002090601f0160209004810192826200024b576000855562000297565b82601f106200026657805160ff191683800117855562000297565b8280016001018555821562000297579182015b828111156200029657825182559160200191906001019062000279565b5b509050620002a69190620002aa565b5090565b5b80821115620002c5576000816000905550600101620002ab565b5090565b6000604051905090565b600080fd5b600080fd5b600080fd5b600080fd5b6000601f19601f8301169050919050565b7f4e487b7100000000000000000000000000000000000000000000000000000000600052604160045260246000fd5b6200033282620002e7565b810181811067ffffffffffffffff82111715620003545762000353620002f8565b5b80604052505050565b600062000369620002c9565b905062000377828262000327565b919050565b600067ffffffffffffffff8211156200039a5762000399620002f8565b5b620003a582620002e7565b9050602081019050919050565b60005b83811015620003d2578082015181840152602081019050620003b5565b83811115620003e2576000848401525b50505050565b6000620003ff620003f9846200037c565b6200035d565b9050828152602081018484840111156200041e576200041d620002e2565b5b6200042b848285620003b2565b509392505050565b600082601f8301126200044b576200044a620002dd565b5b81516200045d848260208601620003e8565b91505092915050565b6000819050919050565b6200047b8162000466565b81146200048757600080fd5b50565b6000815190506200049b8162000470565b92915050565b600060ff82169050919050565b620004b981620004a1565b8114620004c557600080fd5b50565b600081519050620004d981620004ae565b92915050565b60008060008060808587031215620004fc57620004fb620002d3565b5b600085015167ffffffffffffffff8111156200051d576200051c620002d8565b5b6200052b8782880162000433565b945050602085015167ffffffffffffffff8111156200054f576200054e620002d8565b5b6200055d8782880162000433565b935050604062000570878288016200048a565b92505060606200058387828801620004c8565b91505092959194509250565b7f4e487b7100000000000000000000000000000000000000000000000000000000600052602260045260246000fd5b60006002820490506001821680620005d757607f821691505b60208210811415620005ee57620005ed6200058f565b5b50919050565b61150d80620006046000396000f3fe608060405234801561001057600080fd5b50600436106100cf5760003560e01c806370a082311161008c57806395d89b411161006657806395d89b4114610204578063a9059cbb14610222578063dd62ed3e14610252578063f2fde38b14610282576100cf565b806370a08231146101ac578063715018a6146101dc5780638da5cb5b146101e6576100cf565b806306fdde03146100d4578063095ea7b3146100f257806318160ddd1461012257806323b872dd14610140578063313ce567146101705780635c975abb1461018e575b600080fd5b6100dc61029e565b6040516100e99190610d31565b60405180910390f35b61010c60048036038101906101079190610dec565b610330565b6040516101199190610e47565b60405180910390f35b61012a610353565b6040516101379190610e71565b60405180910390f35b61015a60048036038101906101559190610e8c565b61035d565b6040516101679190610e47565b60405180910390f35b61017861038c565b6040516101859190610efb565b60405180910390f35b6101966103a3565b6040516101a39190610e47565b60405180910390f35b6101c660048036038101906101c19190610f16565b6103ba565b6040516101d39190610e71565b60405180910390f35b6101e4610402565b005b6101ee61048a565b6040516101fb9190610f52565b60405180910390f35b61020c6104b4565b6040516102199190610d31565b60405180910390f35b61023c60048036038101906102379190610dec565b610546565b6040516102499190610e47565b60405180910390f35b61026c60048036038101906102679190610f6d565b610569565b6040516102799190610e71565b60405180910390f35b61029c60048036038101906102979190610f16565b6105f0565b005b6060600280546102ad90610fdc565b80601f01602080910402602001604051908101604052809291908181526020018280546102d990610fdc565b80156103265780601f106102fb57610100808354040283529160200191610326565b820191906000526020600020905b81548152906001019060200180831161030957829003601f168201915b5050505050905090565b60008061033b6106e8565b90506103488185856106f0565b600191505092915050565b6000600554905090565b6000806103686106e8565b90506103758582856108bb565b610380858585610947565b60019150509392505050565b6000600460009054906101000a900460ff16905090565b6000600b60009054906101000a900460ff16905090565b60008060008373ffffffffffffffffffffffffffffffffffffffff1673ffffffffffffffffffffffffffffffffffffffff168152602001908152602001600020549050919050565b61040a6106e8565b73ffffffffffffffffffffffffffffffffffffffff1661042861048a565b73ffffffffffffffffffffffffffffffffffffffff161461047e576040517f08c379a00000000000000000000000000000000000000000000000000000000081526004016104759061105a565b60405180910390fd5b6104886000610bc8565b565b6000600660009054906101000a900473ffffffffffffffffffffffffffffffffffffffff16905090565b6060600380546104c390610fdc565b80601f01602080910402602001604051908101604052809291908181526020018280546104ef90610fdc565b801561053c5780601f106105115761010080835404028352916020019161053c565b820191906000526020600020905b81548152906001019060200180831161051f57829003601f168201915b5050505050905090565b6000806105516106e8565b905061055e818585610947565b600191505092915050565b6000600160008473ffffffffffffffffffffffffffffffffffffffff1673ffffffffffffffffffffffffffffffffffffffff16815260200190815260200160002060008373ffffffffffffffffffffffffffffffffffffffff1673ffffffffffffffffffffffffffffffffffffffff16815260200190815260200160002054905092915050565b6105f86106e8565b73ffffffffffffffffffffffffffffffffffffffff1661061661048a565b73ffffffffffffffffffffffffffffffffffffffff161461066c576040517f08c379a00000000000000000000000000000000000000000000000000000000081526004016106639061105a565b60405180910390fd5b600073ffffffffffffffffffffffffffffffffffffffff168173ffffffffffffffffffffffffffffffffffffffff1614156106dc576040517f08c379a00000000000000000000000000000000000000000000000000000000081526004016106d3906110ec565b60405180910390fd5b6106e581610bc8565b50565b600033905090565b600073ffffffffffffffffffffffffffffffffffffffff168373ffffffffffffffffffffffffffffffffffffffff161415610760576040517f08c379a00000000000000000000000000000000000000000000000000000000081526004016107579061117e565b60405180910390fd5b600073ffffffffffffffffffffffffffffffffffffffff168273ffffffffffffffffffffffffffffffffffffffff1614156107d0576040517f08c379a00000000000000000000000000000000000000000000000000000000081526004016107c790611210565b60405180910390fd5b80600160008573ffffffffffffffffffffffffffffffffffffffff1673ffffffffffffffffffffffffffffffffffffffff16815260200190815260200160002060008473ffffffffffffffffffffffffffffffffffffffff1673ffffffffffffffffffffffffffffffffffffffff168152602001908152602001600020819055508173ffffffffffffffffffffffffffffffffffffffff168373ffffffffffffffffffffffffffffffffffffffff167f8c5be1e5ebec7d5bd14f71427d1e84f3dd0314c0f7b2291e5b200ac8c7c3b925836040516108ae9190610e71565b60405180910390a3505050565b60006108c78484610569565b90507fffffffffffffffffffffffffffffffffffffffffffffffffffffffffffffffff81146109415781811015610933576040517f08c379a000000000000000000000000000000000000000000000000000000000815260040161092a9061127c565b60405180910390fd5b61094084848484036106f0565b5b50505050565b600073ffffffffffffffffffffffffffffffffffffffff168373ffffffffffffffffffffffffffffffffffffffff1614156109b7576040517f08c379a00000000000000000000000000000000000000000000000000000000081526004016109ae9061130e565b60405180910390fd5b600073ffffffffffffffffffffffffffffffffffffffff168273ffffffffffffffffffffffffffffffffffffffff161415610a27576040517f08c379a0000000000000000000000000000000000000000000000000000000008152600401610a1e906113a0565b60405180910390fd5b610a32838383610c8e565b60008060008573ffffffffffffffffffffffffffffffffffffffff1673ffffffffffffffffffffffffffffffffffffffff16815260200190815260200160002054905081811015610ab8576040517f08c379a0000000000000000000000000000000000000000000000000000000008152600401610aaf90611432565b60405180910390fd5b8181036000808673ffffffffffffffffffffffffffffffffffffffff1673ffffffffffffffffffffffffffffffffffffffff16815260200190815260200160002081905550816000808573ffffffffffffffffffffffffffffffffffffffff1673ffffffffffffffffffffffffffffffffffffffff1681526020019081526020016000206000828254610b4b9190611481565b925050819055508273ffffffffffffffffffffffffffffffffffffffff168473ffffffffffffffffffffffffffffffffffffffff167fddf252ad1be2c89b69c2b068fc378daa952ba7f163c4a11628f55a4df523b3ef84604051610baf9190610e71565b60405180910390a3610bc2848484610c93565b50505050565b6000600660009054906101000a900473ffffffffffffffffffffffffffffffffffffffff16905081600660006101000a81548173ffffffffffffffffffffffffffffffffffffffff021916908373ffffffffffffffffffffffffffffffffffffffff1602179055508173ffffffffffffffffffffffffffffffffffffffff168173ffffffffffffffffffffffffffffffffffffffff167f8be0079c531659141344cd1fd0a4f28419497f9722a3daafe3b4186f6b6457e060405160405180910390a35050565b505050565b505050565b600081519050919050565b600082825260208201905092915050565b60005b83811015610cd2578082015181840152602081019050610cb7565b83811115610ce1576000848401525b50505050565b6000601f19601f8301169050919050565b6000610d0382610c98565b610d0d8185610ca3565b9350610d1d818560208601610cb4565b610d2681610ce7565b840191505092915050565b60006020820190508181036000830152610d4b8184610cf8565b905092915050565b600080fd5b600073ffffffffffffffffffffffffffffffffffffffff82169050919050565b6000610d8382610d58565b9050919050565b610d9381610d78565b8114610d9e57600080fd5b50565b600081359050610db081610d8a565b92915050565b6000819050919050565b610dc981610db6565b8114610dd457600080fd5b50565b600081359050610de681610dc0565b92915050565b60008060408385031215610e0357610e02610d53565b5b6000610e1185828601610da1565b9250506020610e2285828601610dd7565b9150509250929050565b60008115159050919050565b610e4181610e2c565b82525050565b6000602082019050610e5c6000830184610e38565b92915050565b610e6b81610db6565b82525050565b6000602082019050610e866000830184610e62565b92915050565b600080600060608486031215610ea557610ea4610d53565b5b6000610eb386828701610da1565b9350506020610ec486828701610da1565b9250506040610ed586828701610dd7565b9150509250925092565b600060ff82169050919050565b610ef581610edf565b82525050565b6000602082019050610f106000830184610eec565b92915050565b600060208284031215610f2c57610f2b610d53565b5b6000610f3a84828501610da1565b91505092915050565b610f4c81610d78565b82525050565b6000602082019050610f676000830184610f43565b92915050565b60008060408385031215610f8457610f83610d53565b5b6000610f9285828601610da1565b9250506020610fa385828601610da1565b9150509250929050565b7f4e487b7100000000000000000000000000000000000000000000000000000000600052602260045260246000fd5b60006002820490506001821680610ff457607f821691505b6020821081141561100857611007610fad565b5b50919050565b7f4f776e61626c653a2063616c6c6572206973206e6f7420746865206f776e6572600082015250565b6000611044602083610ca3565b915061104f8261100e565b602082019050919050565b6000602082019050818103600083015261107381611037565b9050919050565b7f4f776e61626c653a206e6577206f776e657220697320746865207a65726f206160008201527f6464726573730000000000000000000000000000000000000000000000000000602082015250565b60006110d6602683610ca3565b91506110e18261107a565b604082019050919050565b60006020820190508181036000830152611105816110c9565b9050919050565b7f45524332303a20617070726f76652066726f6d20746865207a65726f2061646460008201527f7265737300000000000000000000000000000000000000000000000000000000602082015250565b6000611168602483610ca3565b91506111738261110c565b604082019050919050565b600060208201905081810360008301526111978161115b565b9050919050565b7f45524332303a20617070726f766520746f20746865207a65726f20616464726560008201527f7373000000000000000000000000000000000000000000000000000000000000602082015250565b60006111fa602283610ca3565b91506112058261119e565b604082019050919050565b60006020820190508181036000830152611229816111ed565b9050919050565b7f45524332303a20696e73756666696369656e7420616c6c6f77616e6365000000600082015250565b6000611266601d83610ca3565b915061127182611230565b602082019050919050565b6000602082019050818103600083015261129581611259565b9050919050565b7f45524332303a207472616e736665722066726f6d20746865207a65726f20616460008201527f6472657373000000000000000000000000000000000000000000000000000000602082015250565b60006112f8602583610ca3565b91506113038261129c565b604082019050919050565b60006020820190508181036000830152611327816112eb565b9050919050565b7f45524332303a207472616e7366657220746f20746865207a65726f206164647260008201527f6573730000000000000000000000000000000000000000000000000000000000602082015250565b600061138a602383610ca3565b91506113958261132e565b604082019050919050565b600060208201905081810360008301526113b98161137d565b9050919050565b7f45524332303a207472616e7366657220616d6f756e742065786365656473206260008201527f616c616e63650000000000000000000000000000000000000000000000000000602082015250565b600061141c602683610ca3565b9150611427826113c0565b604082019050919050565b6000602082019050818103600083015261144b8161140f565b9050919050565b7f4e487b7100000000000000000000000000000000000000000000000000000000600052601160045260246000fd5b600061148c82610db6565b915061149783610db6565b9250827fffffffffffffffffffffffffffffffffffffffffffffffffffffffffffffffff038211156114cc576114cb611452565b5b82820190509291505056fea26469706673582212204494725089b6e5dc08a80d945f9da642ccbc3f169cee03aff48f45f0dbbab3a164736f6c634300080c0033",
  "immutableReferences": {},
  "source": "// SPDX-License-Identifier: MIT\npragma solidity ^0.8.0;\n\nimport \"./BasicERC-20.sol\";\nimport \"./utils/Ownable.sol\";\n\ncontract Pausable is BasicERC20, Ownable {\n    event Paused(address account);\n    event Unpaused(address account);\n\n    string private _name;\n    string private _symbol;\n    uint8 private _decimals;\n\n    uint256 private _totalSupply;\n\n   bool private _paused;\n\n   constructor(\n       string memory name_,\n       string memory symbol_,\n       uint256 totalSupply_,\n       uint8 decimals_\n   ) BasicERC20(\"\",\"\",0,0) Ownable()\n   {\n       _name = name_;\n       _symbol = symbol_;\n       _totalSupply = totalSupply_;\n       _paused = false;\n       _decimals = decimals_;\n   }\n\n   function paused() public view virtual returns (bool) {\n       return _paused;\n   }\n\n   modifier whenNotPaused() {\n       require(!paused(), \"Pausable: paused\");\n       _;\n   }\n\n   modifier whenPaused() {\n       require(paused(), \"Pausable: not paused\");\n       _;\n   }\n\n   function _pause() internal virtual whenNotPaused onlyOwner{\n       _paused = true;\n       emit Paused(_msgSender());\n   }\n\n   function _unpause() internal virtual whenPaused onlyOwner{\n       _paused = false;\n       emit Unpaused(_msgSender());\n   }\n}\n",
  "sourcePath": "/home/gergana/TUES/thesis/ERC20-token-generator/contracts/contracts/PausableERC-20.sol",
  "compiler": {
    "name": "solc",
    "version": "0.8.12+commit.f00d7308.Emscripten.clang"
  },
  "schemaVersion": "3.4.6",
  "updatedAt": "2022-03-19T18:34:42.327Z",
  "devdoc": {
    "kind": "dev",
    "methods": {},
    "version": 1
  },
  "userdoc": {
    "kind": "user",
    "methods": {},
    "version": 1
  }
}